S01700004763634170706C69636174696F6E312E737265635B
S113000033C0000044C0000042C0000040C00000F3
S11300103EC000003CC000003AC0000038C00000F0
S113002036C0000034C0000032C0000030C0000000
S11300302EC000002CC000002AC0000028C0000010
S113004026C0000024C0000022C0000020C0000020
S11300501EC000001CC000001AC0000018C0000030
S113006016C0000014C0000011241FBECFEFD8E05A
S1130070DEBFCDBF11E0A0E0B1E0E6E2F2E002C0F5
S113008005900D92A633B107D9F7AAD0CAC0B8CF4C
S113009084B1836384B987B18E7F87B98AB188625A
S11300A08AB98AB18B7C8AB9089517B887E8809396
S11300B07A0080E480937C000895ECE7F0E090817E
S11300C08F70982B9083EAE7F0E0808180648083CE
S11300D080917A0084FFFCCF8FE39CE90197F1F7CC
S11300E000C00000209178008091790090E0982F62
S11300F08827820F911D08959091C00095FFFCCF31
S11301008093C6000895EF92FF920F931F93CF93AD
S1130110DF937C01FC0101900020E9F731978F0106
S1130120081B190BC0E0D0E006C0F701EC0FFD1F5F
S11301308081E2DF2196C017D107BCF3DF91CF9114
S11301401F910F91FF90EF90089580E091E0DBDF25
S11301508DE0D2DF8AE0D0DF2FEF83ED90E32150F2
S113016080409040E1F700C0000083E091E0CBDFE5
S11301708DE0C2DF8AE0C0DF2FEF83ED90E32150F2
S113018080409040E1F700C000008DE091E0BBDFCB
S113019082E2B2DF86E191E0B6DF82E2ADDF8DE09C
S11301A0ABDF8AE0A9DF2FEF83ED90E3215080409D
S11301B09040E1F700C0000083E291E0A4DF8DE00D
S11301C09BDF8AE099CF08951092C50087E680935B
S11301D0C40088E08093C10086E08093C200089543
S11301E057DF63DFF1DFB1DF80E067DF8D3B22E0C3
S11301F092071CF085B185B90AC08935924024F074
S113020085B1806185B903C085B1806385B9499999
S113021004C08BB18F7D8BB9E7CF8BB180628BB972
S1090220E3CFF894FFCFC8
S113022641540041542B434D47463D310041542B24
S1130236434D47573D002B3934373239363930323E
S113024636310054686572652069732061207669C9
S10902567369746F72006D
S9030000FC
